:100000000C943A000C94BF030C94BF030C94BF03F0
:100010000C94BF030C94BF030C94BF030C94BF0358
:100020000C94BF030C94BF030C94BF030C94D40135
:100030000C94BF030C94BF030C94BF030C94BF0338
:100040000C94BF030C94BF030C9464000C94BF0386
:100050000C94BF030C94BF030C94BF030C94BF0318
:100060000C94BF030C94BF030100012A00078C010C
:100070002A01408011241FBECFEFD8E0DEBFCDBFE4
:10008000E8E6F0E040E017C0B591A59135912591E3
:10009000059107FD0CC095918591EF01F92FE82F8F
:1000A00005900D92A217B307D9F7FE0104C01D9267
:1000B000A217B307E1F7E437F40731F70E942303EF
:0800C0000C949D03F894FFCF9E
:1000C8001F920F920FB60F9211240F931F932F9325
:1000D8003F934F935F936F937F938F939F93AF93C8
:1000E800BF93CF93DF93EF93FF938091C6009091D6
:1000F8003C019F30A8F48A30E1F08D30D1F0E091D6
:100108003C0191E09E0F90933C01F0E0E65DFE4FCC
:100118008083E0913C01F0E0E65DFE4F108204C070
:100128008A3039F08D3029F080913C018F3008F405
:1001380022C180913C01843009F04EC080912A018F
:10014800843209F049C080912B01873409F044C0FA
:1001580080912C01853409F03FC080912D018435B0
:10016800D9F5F89400913D0110913E01D0913F01DD
:10017800789480E091E00E947703CAE0802F6C2F8A
:100188000E948603092F805D0E94B10380E3800FDF
:100198000E94B1038EE20E94B103812F6C2F0E944E
:1001A8008603192F805D0E94B10380E3810F0E94AE
:1001B800B1038EE20E94B1038D2F6C2F0E9486033B
:1001C800C92F805D0E94B10380E38C0F0E94B103A8
:1001D8008AE00E94B103CDC080913C018D3009F0C6
:1001E8008EC080912A01843209F089C080912B0148
:1001F800833509F084C080912C01853409F07FC0D3
:1002080080912D01843509F07AC080912E018E32BB
:1002180009F075C0809131018E3209F070C080916B
:1002280034018E3209F06BC0EAE2F1E085819681F3
:10023800880F8056182F110F110F810F9053182F08
:10024800190F90858185990F9056D92FDD0FDD0FF5
:100258009D0F8053D92FD80F93858485990F905679
:10026800C92FCC0FCC0F9C0F8053C92FC80F183142
:1002780008F040C0DC3308F03DC0CC33D8F5F89422
:1002880010933D01D0933E01C0933F01789486E0DE
:1002980091E00E9477030AE0812F602F0E94860375
:1002A800192F805D0E94B10380E3810F0E94B10382
:1002B8008EE20E94B1038D2F602F0E948603D92FF2
:1002C800805D0E94B10380E38D0F0E94B1038EE22E
:1002D8000E94B1038C2F602F0E948603C92F805D76
:1002E8000E94B10380E38C0F0E94B1038AE00E9450
:1002F800B1033FC08DE091E00E9477033AC080913E
:100308003C018530B9F480912A01843299F48091B6
:100318002B01833579F480912C01823559F4809131
:100328002D018E3239F483E191E00E9477030E9417
:10033800B9031FC080913C018530B9F480912A012E
:10034800843299F480912B01833479F480912C01C3
:10035800823559F480912D018E3239F48AE191E089
:100368000E9477030E94BC0304C08DE091E00E94C4
:10037800770310923C01FF91EF91DF91CF91BF91EC
:10038800AF919F918F917F916F915F914F913F9125
:100398002F911F910F910F900FBE0F901F901895DE
:1003A8001F920F920FB60F9211242F933F934F93E2
:1003B8005F936F937F938F939F93AF93BF93EF93C5
:1003C800FF9380913F018F5F80933F0180913F01B0
:1003D8008C33C0F010923F0180913E018F5F809373
:1003E8003E0180913E018C3368F010923E0180916D
:1003F8003D018F5F80933D0180913D01883110F070
:1004080010923D0180913D01853051F480913E016B
:100418008E3131F480913F01811102C00E94B903ED
:1004280080913D01873051F480913E018E3131F445
:1004380080913F01811102C00E94BC0381E090E0DD
:1004480090933B0180933A01FF91EF91BF91AF9157
:100458009F918F917F916F915F914F913F912F91D4
:0A0468000F900FBE0F901F90189523
:1004720094EA9093BC00ECEBF0E090819923ECF7C6
:100482009EE49093BB0094E89093BC00ECEBF0E008
:1004920090819923ECF7282F22952F7090E1299FC4
:1004A20090011124611102C0286001C02960922FBD
:1004B20094609093BB0094E89093BC00ECEBF0E066
:1004C20090819923ECF72093BB0094E89093BC00B1
:1004D200ECEBF0E090819923ECF720E1829FC001E0
:1004E2001124611102C0886001C08960982F946054
:1004F2009093BB0094E89093BC00ECEBF0E0908109
:100502009923ECF78093BB0084E88093BC00ECEB6A
:10051200F0E080818823ECF784E98093BC0087ECCB
:0C05220090E00197F1F700C00000089580
:10052E00CF93DF93CDB7DEB729970FB6F894DEBF22
:10053E000FBECDBF9DEC899F212D112426952695AA
:10054E00269530E3320F3983220F322F330F330FBC
:10055E00230F821B805D8A833AE33B83699F812D43
:10056E00112486958695869520E3280F2C83880F77
:10057E00282F220F220F820F681B605D6D833E8332
:10058E00499F912D112496959695969580E3890F06
:10059E008F83990F892F880F880F980F491B405D05
:1005AE004887198660E084EC0E943902CE010196DC
:1005BE000E94670329960FB6F894DEBF0FBECDBF1B
:0605CE00DF91CF910895BA
:1005D400CF932FEF80E792E0215080409040E1F7E5
:1005E40000C00000C3E060E083E00E9439028FE1B4
:1005F4009EE40197F1F700C00000C150A1F760E04C
:1006040082E00E9439028FE19EE40197F1F700C075
:10061400000060E088E20E94390260E08CE00E9401
:10062400390260E086E00E94390260E081E00E94C5
:1006340039028FE39FE10197F1F700C00000CF91E9
:02064400089517
:10064600529A259A0E94BC0310923D0110923E01D7
:1006560010923F010E94530387E690E00E949203A6
:100666000E94A8030E94EA02789460E084E80E944F
:10067600390281E291E00E94670380913A019091EC
:100686003B01892BD1F340913F0160913E0180915E
:100696003D010E94970210923B0110923A01EDCF64
:1006A600E1E8F0E0808188608083808185608083D6
:1006B60088E09DE39093890080938800EFE6F0E060
:0806C6008081826080830895A9
:1006CE00CF93DF93EC018881882339F0219661E086
:1006DE000E94390289918111FACFDF91CF9108954D
:1006EE00CF93DF93EC018881882331F021960E940D
:0E06FE00B10389918111FBCFDF91CF91089557
:10070C00991B79E004C0991F961708F0961B881F57
:08071C007A95C9F78095089554
:100724009093C5008093C40088E98093C10086E05B
:060734008093C20008954D
:10073A00EC010E94C4030E94C303CE010E94C503B8
:06074A00CE010E94C10374
:100750001092B90080E28093B80084E88093BC00D6
:020760000895FA
:10076200E0ECF0E0908195FFFDCF8093C600089504
:060772005A982D9A08952B
:060778005A9A2D98089525
:04077E000C940000D7
:040782000E9462006F
:020786000895D4
:020788000895D2
:02078A000895D0
:10078C0024534D482E00244E484D532E00244552E0
:10079C00520A002453522E310A002443522E310A9D
:0A07AC0000486F726172696F3A0035
:00000001FF
