:100000000C9437000C94EE000C94EE000C94EE006F
:100010000C94EE000C94EE000C94EE000C94EE00A8
:100020000C94EE000C94EE000C94EE000C94610025
:100030000C94EE000C94EE000C94EE000C94EE0088
:100040000C94EE000C94EE000C94EE000C94EE0078
:100050000C94EE000C94EE000C94EE000C94EE0068
:100060000C94EE000C94EE000100010380001124BA
:100070001FBECFEFD8E0DEBFCDBFE8E6F0E040E046
:1000800017C0B591A59135912591059107FD0CC03B
:1000900095918591EF01F92FE82F05900D92A21708
:1000A000B307D9F7FE0104C01D92A217B307E1F709
:1000B000ED36F40731F70E94D4000C94E300F89475
:0200C000FFCF70
:1000C2001F920F920FB60F9211242F933F934F93CB
:1000D2005F936F937F938F939F93AF93BF93EF93AE
:1000E200FF93809102018F5F809302018091020150
:1000F2008C33C0F010920201809101018F5F8093D6
:100102000101809101018C3368F01092010180910C
:1001120000018F5F8093000180910001883110F00F
:100122001092000180910001853051F4809101010B
:100132008E3131F480910201811102C00E94F000DF
:1001420080910001873051F4809101018E3131F4A8
:1001520080910201811102C00E94F200FF91EF9191
:10016200BF91AF919F918F917F916F915F914F91CD
:0E0172003F912F910F900FBE0F901F90189588
:10018000E1E8F0E080818860808380818560808301
:1001900088E09DE39093890080938800EFE6F0E08B
:0801A0008081826080830895D4
:1001A800529A0E94F20085E0809300018CE18093CE
:0E01B8000101109202010E94C0007894FFCF56
:1001C600EC010E94F7000E94F600CE010E94F800A2
:0601D600CE010E94F400BE
:0401DC000C9400007F
:0401E0005A9A08958A
:0401E4005A98089588
:0401E8000E945F0012
:0201EC00089574
:0201EE00089572
:0201F000089570
:00000001FF
