:100000000C943D000C944F020C944F020C944F0240
:100010000C944F020C944F020C944F020C944F021C
:100020000C944F020C944F020C944F020C948B01D1
:100030000C944F020C944F020C944F020C944F02FC
:100040000C944F020C944F020C9467000C944F02D6
:100050000C944F020C944F020C944F020C944F02DC
:100060000C944F020C944F020100010F80010F010C
:100070001C0004AC011C0120800011241FBECFEF26
:10008000D8E0DEBFCDBFE8E6F0E040E017C0B591B4
:10009000A59135912591059107FD0CC0959185910C
:1000A000EF01F92FE82F05900D92A217B307D9F7AA
:1000B000FE0104C01D92A217B307E1F7E937F40768
:0E00C00031F70E94FE010C943602F894FFCF37
:1000CE001F920F920FB60F9211240F931F932F931F
:1000DE003F934F935F936F937F938F939F93AF93C2
:1000EE00BF93CF93DF93EF93FF939091C6008091D0
:1000FE001C018E3080F4E0911C0181E08E0F809304
:10010E001C01F0E0E050FF4F9083E0911C01F0E005
:10011E00E050FF4F108280911C01843009F04FC0D7
:10012E0080910001843209F04AC080910101873428
:10013E0009F045C080910201853409F040C08091DC
:10014E0003018435E1F5F89400911D0110911E0113
:10015E00D0911F0178948FE091E00E941002CAE0C6
:10016E00802F6C2F0E941F02092F805D0E9441027A
:10017E0080E3800F0E9441028EE20E944102812F95
:10018E006C2F0E941F02192F805D0E94410280E396
:10019E00810F0E9441028EE20E9441028D2F6C2F30
:1001AE000E941F02C92F805D0E94410280E38C0FC6
:1001BE000E9441028AE00E94410210921C0180912D
:1001CE001C018E3009F08BC080910001843209F041
:1001DE0086C080910101833509F081C080910201B2
:1001EE00853409F07CC080910301843509F077C015
:1001FE00809104018E3209F072C0809107018E3217
:10020E0009F06DC080910A018E3209F068C0E0E0FD
:10021E00F1E085819681880F8056182F110F110FEE
:10022E00810F9053182F190F308591852385848562
:10023E00183108F052C0330F3056D32FDD0FDD0FBB
:10024E003D0F9053D32FD90FDC3308F046C0922FB9
:10025E00990F9056C92FCC0FCC0F9C0F8053C92FDE
:10026E00C80FCC33D0F5F89410931D01D0931E0116
:10027E00C0931F01789485E191E00E9410020AE07C
:10028E00812F602F0E941F02192F805D0E94410254
:10029E0080E3810F0E9441028EE20E9441028D2F67
:1002AE00602F0E941F02D92F805D0E94410280E3C1
:1002BE008D0F0E9441028EE20E9441028C2F602F10
:1002CE000E941F02C92F805D0E94410280E38C0FA5
:1002DE000E9441028AE00E94410210921C01FF918D
:1002EE00EF91DF91CF91BF91AF919F918F917F91C0
:1002FE006F915F914F913F912F911F910F910F90A1
:08030E000FBE0F901F9018951F
:100316001F920F920FB60F9211242F933F934F9374
:100326005F936F937F938F939F93AF93BF93EF9357
:10033600FF9380911F018F5F80931F0180911F01A2
:100346008C33C0F010921F0180911E018F5F809345
:100356001E0180911E018C3368F010921E0180915F
:100366001D018F5F80931D0180911D01883110F062
:1003760010921D0180911D01853051F480911E015E
:100386008E3131F480911F01811102C00E94490211
:1003960080911D01873051F480911E018E3131F418
:1003A60080911F01811102C00E944C02FF91EF91C2
:1003B600BF91AF919F918F917F916F915F914F9177
:0E03C6003F912F910F900FBE0F901F90189532
:1003D400E1E8F0E0808188608083808185608083AB
:1003E40088E09DE39093890080938800EFE6F0E035
:0803F40080818260808308957E
:1003FC00529A259A0E944C0210921D0110921E01D5
:10040C0010921F010E94EA0187E690E00E942B02E5
:04041C007894FFCF02
:10042000CF93DF93EC018881882331F021960E94DD
:0E043000410289918111FBCFDF91CF91089598
:10043E00991B79E004C0991F961708F0961B881F28
:08044E007A95C9F78095089525
:100456009093C5008093C40088E98093C10086E02C
:060466008093C20008951E
:10046C00EC010E9454020E945302CE010E945502DC
:06047C00CE010E945102B6
:10048200E0ECF0E0908195FFFDCF8093C6000895E7
:060492005A9A2D9A08950C
:060498005A982D9808950A
:04049E000C940000BA
:0404A2000E9465004F
:0204A6000895B7
:0204A8000895B5
:0204AA000895B3
:0D04AC0024534D482E00244E484D532E0081
:00000001FF
