:100000000C943A000C9473030C9473030C947303D4
:100010000C9473030C9473030C9473030C94730388
:100020000C9473030C9473030C9473030C94880165
:100030000C9473030C9473030C9473030C94730368
:100040000C9473030C9473030C9464000C9473036A
:100050000C9473030C9473030C9473030C94730348
:100060000C9473030C947303010001160006F40151
:1000700016012B8011241FBECFEFD8E0DEBFCDBF0D
:10008000E8E6F0E040E017C0B591A59135912591E3
:10009000059107FD0CC095918591EF01F92FE82F8F
:1000A00005900D92A217B307D9F7FE0104C01D9267
:1000B000A217B307E1F7E437F40731F70E94D7023C
:0800C0000C945103F894FFCFEA
:1000C8001F920F920FB60F9211240F931F932F9325
:1000D8003F934F935F936F937F938F939F93AF93C8
:1000E800BF93CF93DF93EF93FF939091C6008091D6
:1000F80027018E3080F4E091270181E08E0F8093F4
:100108002701F0E0EA5EFE4F9083E0912701F0E0DE
:10011800EA5EFE4F108280912701843009F04FC0BB
:1001280080911601843209F04AC080911701873402
:1001380009F045C080911801853409F040C08091CC
:1001480019018435E1F5F8940091280110912901ED
:10015800D0912A01789480E091E00E942B03CAE0B4
:10016800802F6C2F0E943A03092F805D0E9465033F
:1001780080E3800F0E9465038EE20E946503812F51
:100188006C2F0E943A03192F805D0E94650380E35B
:10019800810F0E9465038EE20E9465038D2F6C2FEC
:1001A8000E943A03C92F805D0E94650380E38C0F8B
:1001B8000E9465038AE00E946503109227018091DE
:1001C80027018E3009F08BC080911601843209F026
:1001D80086C080911701833509F081C0809118018C
:1001E800853409F07CC080911901843509F077C005
:1001F80080911A018E3209F072C080911D018E32F1
:1002080009F06DC0809120018E3209F068C0E6E1E6
:10021800F1E085819681880F8056182F110F110FF4
:10022800810F9053182F190F308591852385848568
:10023800183108F052C0330F3056D32FDD0FDD0FC1
:100248003D0F9053D32FD90FDC3308F046C0922FBF
:10025800990F9056C92FCC0FCC0F9C0F8053C92FE4
:10026800C80FCC33D0F5F89410932801D093290106
:10027800C0932A01789486E091E00E942B030AE05B
:10028800812F602F0E943A03192F805D0E94650319
:1002980080E3810F0E9465038EE20E9465038D2F23
:1002A800602F0E943A03D92F805D0E94650380E386
:1002B8008D0F0E9465038EE20E9465038C2F602FCC
:1002C8000E943A03C92F805D0E94650380E38C0F6A
:1002D8000E9465038AE00E94650310922701FF913E
:1002E800EF91DF91CF91BF91AF919F918F917F91C6
:1002F8006F915F914F913F912F911F910F910F90A7
:080308000FBE0F901F90189525
:100310001F920F920FB60F9211242F933F934F937A
:100320005F936F937F938F939F93AF93BF93EF935D
:10033000FF9380912A018F5F80932A0180912A0187
:100340008C33C0F010922A01809129018F5F809335
:100350002901809129018C3368F010922901809144
:1003600028018F5F8093280180912801883110F047
:100370001092280180912801853051F48091290143
:100380008E3131F480912A01811102C00E946D03E7
:1003900080912801873051F4809129018E3131F408
:1003A00080912A01811102C00E94700381E090E0D7
:1003B0009093260180932501FF91EF91BF91AF911A
:1003C0009F918F917F916F915F914F913F912F916D
:0A03D0000F900FBE0F901F901895BC
:1003DA0094EA9093BC00ECEBF0E090819923ECF75F
:1003EA009EE49093BB0094E89093BC00ECEBF0E0A1
:1003FA0090819923ECF7282F22952F7090E1299F5D
:10040A0090011124611102C0286001C02960922F55
:10041A0094609093BB0094E89093BC00ECEBF0E0FE
:10042A0090819923ECF72093BB0094E89093BC0049
:10043A00ECEBF0E090819923ECF720E1829FC00178
:10044A001124611102C0886001C08960982F9460EC
:10045A009093BB0094E89093BC00ECEBF0E09081A1
:10046A009923ECF78093BB0084E88093BC00ECEB03
:10047A00F0E080818823ECF784E98093BC0087EC64
:0C048A0090E00197F1F700C00000089519
:10049600CF93DF93CDB7DEB729970FB6F894DEBFBB
:1004A6000FBECDBF9DEC899F212D11242695269543
:1004B600269530E3320F3983220F322F330F330F55
:1004C600230F821B805D8A833AE33B83699F812DDC
:1004D600112486958695869520E3280F2C83880F10
:1004E600282F220F220F820F681B605D6D833E83CB
:1004F600499F912D112496959695969580E3890F9F
:100506008F83990F892F880F880F980F491B405D9D
:100516004887198660E084EC0E94ED01CE010196C1
:100526000E941B0329960FB6F894DEBF0FBECDBFFF
:06053600DF91CF91089552
:10053C00CF932FEF80E792E0215080409040E1F77D
:10054C0000C00000C3E060E083E00E94ED018FE199
:10055C009EE40197F1F700C00000C150A1F760E0E4
:10056C0082E00E94ED018FE19EE40197F1F700C05B
:10057C00000060E088E20E94ED0160E08CE00E94E7
:10058C00ED0160E086E00E94ED0160E081E00E94F8
:10059C00ED018FE39FE10197F1F700C00000CF91CF
:0205AC000895B0
:1005AE00529A259A0E9470031092280110922901E6
:1005BE0010922A010E94070387E690E00E944603EC
:1005CE000E945C030E949E02789460E084E80E9480
:1005DE00ED018DE091E00E941B0380912501909129
:1005EE002601892BD1F340912A0160912901809136
:1005FE0028010E944B021092260110922501EDCF88
:10060E00E1E8F0E08081886080838081856080836E
:10061E0088E09DE39093890080938800EFE6F0E0F8
:08062E00808182608083089541
:10063600CF93DF93EC018881882339F0219661E01E
:100646000E94ED0189918111FACFDF91CF91089532
:10065600CF93DF93EC018881882331F021960E94A5
:0E066600650389918111FBCFDF91CF9108953B
:10067400991B79E004C0991F961708F0961B881FF0
:080684007A95C9F780950895ED
:10068C009093C5008093C40088E98093C10086E0F4
:06069C008093C2000895E6
:1006A200EC010E9478030E947703CE010E94790335
:0606B200CE010E94750359
:1006B8001092B90080E28093B80084E88093BC006F
:0206C800089593
:1006CA00E0ECF0E0908195FFFDCF8093C60008959D
:0606DA005A9A2D9A0895C2
:0606E0005A982D980895C0
:0406E6000C94000070
:0406EA000E94620008
:0206EE0008956D
:0206F00008956B
:0206F200089569
:1006F40024534D482E00244E484D532E00486F720B
:060704006172696F3A000A
:00000001FF
